{
  "contractName": "UniversityData",
  "abi": [
    {
      "anonymous": false,
      "inputs": [
        {
          "indexed": true,
          "internalType": "uint256",
          "name": "studentId",
          "type": "uint256"
        },
        {
          "indexed": false,
          "internalType": "bytes32",
          "name": "dataHash",
          "type": "bytes32"
        }
      ],
      "name": "StudentAdded",
      "type": "event"
    },
    {
      "anonymous": false,
      "inputs": [
        {
          "indexed": true,
          "internalType": "uint256",
          "name": "studentId",
          "type": "uint256"
        },
        {
          "indexed": false,
          "internalType": "bytes32",
          "name": "dataHash",
          "type": "bytes32"
        }
      ],
      "name": "StudentUpdated",
      "type": "event"
    },
    {
      "inputs": [
        {
          "internalType": "uint256",
          "name": "_studentId",
          "type": "uint256"
        },
        {
          "internalType": "string",
          "name": "_name",
          "type": "string"
        },
        {
          "internalType": "string",
          "name": "_programme",
          "type": "string"
        },
        {
          "internalType": "uint256",
          "name": "_joinYear",
          "type": "uint256"
        },
        {
          "internalType": "uint256",
          "name": "_cgpa",
          "type": "uint256"
        },
        {
          "internalType": "uint256",
          "name": "_graduateYear",
          "type": "uint256"
        }
      ],
      "name": "addStudent",
      "outputs": [],
      "stateMutability": "nonpayable",
      "type": "function"
    },
    {
      "inputs": [
        {
          "internalType": "uint256",
          "name": "_studentId",
          "type": "uint256"
        },
        {
          "internalType": "string",
          "name": "_name",
          "type": "string"
        },
        {
          "internalType": "string",
          "name": "_programme",
          "type": "string"
        },
        {
          "internalType": "uint256",
          "name": "_joinYear",
          "type": "uint256"
        },
        {
          "internalType": "uint256",
          "name": "_cgpa",
          "type": "uint256"
        },
        {
          "internalType": "uint256",
          "name": "_graduateYear",
          "type": "uint256"
        }
      ],
      "name": "updateStudent",
      "outputs": [],
      "stateMutability": "nonpayable",
      "type": "function"
    },
    {
      "inputs": [
        {
          "internalType": "uint256",
          "name": "_studentId",
          "type": "uint256"
        }
      ],
      "name": "getStudent",
      "outputs": [
        {
          "components": [
            {
              "internalType": "uint256",
              "name": "studentId",
              "type": "uint256"
            },
            {
              "internalType": "string",
              "name": "name",
              "type": "string"
            },
            {
              "internalType": "string",
              "name": "programme",
              "type": "string"
            },
            {
              "internalType": "uint256",
              "name": "joinYear",
              "type": "uint256"
            },
            {
              "internalType": "uint256",
              "name": "cgpa",
              "type": "uint256"
            },
            {
              "internalType": "uint256",
              "name": "graduateYear",
              "type": "uint256"
            },
            {
              "internalType": "bytes32",
              "name": "dataHash",
              "type": "bytes32"
            }
          ],
          "internalType": "struct UniversityData.Student",
          "name": "",
          "type": "tuple"
        }
      ],
      "stateMutability": "view",
      "type": "function",
      "constant": true
    }
  ],
  "bytecode": "0x608060405234801561001057600080fd5b50610dfb806100206000396000f3fe608060405234801561001057600080fd5b50600436106100415760003560e01c80633e9137aa14610046578063642f916314610062578063fe652ab714610092575b600080fd5b610060600480360381019061005b91906107d0565b6100ae565b005b61007c600480360381019061007791906107a7565b610278565b6040516100899190610bc5565b60405180910390f35b6100ac60048036038101906100a791906107d0565b61043e565b005b60008060008881526020019081526020016000206000015414610106576040517f08c379a00000000000000000000000000000000000000000000000000000000081526004016100fd90610ba5565b60405180910390fd5b6000600287878787878760405160200161012596959493929190610ae2565b6040516020818303038152906040526040516101419190610acb565b602060405180830381855afa15801561015e573d6000803e3d6000fd5b5050506040513d601f19601f82011682018060405250810190610181919061077e565b90506040518060e00160405280888152602001878152602001868152602001858152602001848152602001838152602001828152506000808981526020019081526020016000206000820151816000015560208201518160010190805190602001906101ee929190610609565b50604082015181600201908051906020019061020b929190610609565b50606082015181600301556080820151816004015560a0820151816005015560c08201518160060155905050867f48d434829463b23654c8c1d09ecfe90fd193502a22cbb19498a298fd23e94e26826040516102679190610b4a565b60405180910390a250505050505050565b61028061068f565b60008214156102c4576040517f08c379a00000000000000000000000000000000000000000000000000000000081526004016102bb90610b65565b60405180910390fd5b6000808381526020019081526020016000206040518060e0016040529081600082015481526020016001820180546102fb90610cec565b80601f016020809104026020016040519081016040528092919081815260200182805461032790610cec565b80156103745780601f1061034957610100808354040283529160200191610374565b820191906000526020600020905b81548152906001019060200180831161035757829003601f168201915b5050505050815260200160028201805461038d90610cec565b80601f01602080910402602001604051908101604052809291908181526020018280546103b990610cec565b80156104065780601f106103db57610100808354040283529160200191610406565b820191906000526020600020905b8154815290600101906020018083116103e957829003601f168201915b505050505081526020016003820154815260200160048201548152602001600582015481526020016006820154815250509050919050565b6000806000888152602001908152602001600020600001541415610497576040517f08c379a000000000000000000000000000000000000000000000000000000000815260040161048e90610b85565b60405180910390fd5b600060028787878787876040516020016104b696959493929190610ae2565b6040516020818303038152906040526040516104d29190610acb565b602060405180830381855afa1580156104ef573d6000803e3d6000fd5b5050506040513d601f19601f82011682018060405250810190610512919061077e565b90506040518060e001604052808881526020018781526020018681526020018581526020018481526020018381526020018281525060008089815260200190815260200160002060008201518160000155602082015181600101908051906020019061057f929190610609565b50604082015181600201908051906020019061059c929190610609565b50606082015181600301556080820151816004015560a0820151816005015560c08201518160060155905050867f4334c54ffbcf06c159692c4c5a7b7c1afc5e2917d5d8977c11be978bd36faa76826040516105f89190610b4a565b60405180910390a250505050505050565b82805461061590610cec565b90600052602060002090601f016020900481019282610637576000855561067e565b82601f1061065057805160ff191683800117855561067e565b8280016001018555821561067e579182015b8281111561067d578251825591602001919060010190610662565b5b50905061068b91906106cf565b5090565b6040518060e00160405280600081526020016060815260200160608152602001600081526020016000815260200160008152602001600080191681525090565b5b808211156106e85760008160009055506001016106d0565b5090565b60006106ff6106fa84610c18565b610be7565b90508281526020810184848401111561071757600080fd5b610722848285610caa565b509392505050565b60008151905061073981610d97565b92915050565b600082601f83011261075057600080fd5b81356107608482602086016106ec565b91505092915050565b60008135905061077881610dae565b92915050565b60006020828403121561079057600080fd5b600061079e8482850161072a565b91505092915050565b6000602082840312156107b957600080fd5b60006107c784828501610769565b91505092915050565b60008060008060008060c087890312156107e957600080fd5b60006107f789828a01610769565b965050602087013567ffffffffffffffff81111561081457600080fd5b61082089828a0161073f565b955050604087013567ffffffffffffffff81111561083d57600080fd5b61084989828a0161073f565b945050606061085a89828a01610769565b935050608061086b89828a01610769565b92505060a061087c89828a01610769565b9150509295509295509295565b61089281610c96565b82525050565b6108a181610c96565b82525050565b60006108b282610c48565b6108bc8185610c5e565b93506108cc818560208601610cb9565b80840191505092915050565b60006108e382610c53565b6108ed8185610c69565b93506108fd818560208601610cb9565b61090681610d86565b840191505092915050565b600061091c82610c53565b6109268185610c8b565b9350610936818560208601610cb9565b80840191505092915050565b600061094f601283610c7a565b91507f496e76616c69642053747564656e7420494400000000000000000000000000006000830152602082019050919050565b600061098f601683610c7a565b91507f53747564656e7420646f6573206e6f74206578697374000000000000000000006000830152602082019050919050565b60006109cf601683610c7a565b91507f53747564656e7420616c726561647920657869737473000000000000000000006000830152602082019050919050565b600060e083016000830151610a1a6000860182610aa5565b5060208301518482036020860152610a3282826108d8565b91505060408301518482036040860152610a4c82826108d8565b9150506060830151610a616060860182610aa5565b506080830151610a746080860182610aa5565b5060a0830151610a8760a0860182610aa5565b5060c0830151610a9a60c0860182610889565b508091505092915050565b610aae81610ca0565b82525050565b610ac5610ac082610ca0565b610d1e565b82525050565b6000610ad782846108a7565b915081905092915050565b6000610aee8289610ab4565b602082019150610afe8288610911565b9150610b0a8287610911565b9150610b168286610ab4565b602082019150610b268285610ab4565b602082019150610b368284610ab4565b602082019150819050979650505050505050565b6000602082019050610b5f6000830184610898565b92915050565b60006020820190508181036000830152610b7e81610942565b9050919050565b60006020820190508181036000830152610b9e81610982565b9050919050565b60006020820190508181036000830152610bbe816109c2565b9050919050565b60006020820190508181036000830152610bdf8184610a02565b905092915050565b6000604051905081810181811067ffffffffffffffff82111715610c0e57610c0d610d57565b5b8060405250919050565b600067ffffffffffffffff821115610c3357610c32610d57565b5b601f19601f8301169050602081019050919050565b600081519050919050565b600081519050919050565b600081905092915050565b600082825260208201905092915050565b600082825260208201905092915050565b600081905092915050565b6000819050919050565b6000819050919050565b82818337600083830152505050565b60005b83811015610cd7578082015181840152602081019050610cbc565b83811115610ce6576000848401525b50505050565b60006002820490506001821680610d0457607f821691505b60208210811415610d1857610d17610d28565b5b50919050565b6000819050919050565b7f4e487b7100000000000000000000000000000000000000000000000000000000600052602260045260246000fd5b7f4e487b7100000000000000000000000000000000000000000000000000000000600052604160045260246000fd5b6000601f19601f8301169050919050565b610da081610c96565b8114610dab57600080fd5b50565b610db781610ca0565b8114610dc257600080fd5b5056fea2646970667358221220085445df4f886b3c6040aaa6019cd729c46d88d2d643947543ad27287875c94d64736f6c63430008000033",
  "immutableReferences": {},
  "source": "// SPDX-License-Identifier: MIT\npragma solidity ^0.8.0;\n\ncontract UniversityData {\n    struct Student {\n        uint256 studentId;\n        string name;\n        string programme;\n        uint256 joinYear;\n        uint256 cgpa;\n        uint256 graduateYear;\n        bytes32 dataHash; // SHA-256 hash of the student data\n    }\n\n    mapping(uint256 => Student) private students;\n    event StudentAdded(uint256 indexed studentId, bytes32 dataHash);\n    event StudentUpdated(uint256 indexed studentId, bytes32 dataHash);\n\n    // Add a new student\n    function addStudent(uint256 _studentId, string memory _name, string memory _programme, uint256 _joinYear, uint256 _cgpa, uint256 _graduateYear) public {\n        require(students[_studentId].studentId == 0, \"Student already exists\");\n        \n        bytes32 dataHash = sha256(abi.encodePacked(_studentId, _name, _programme, _joinYear, _cgpa, _graduateYear));\n        students[_studentId] = Student(_studentId, _name, _programme, _joinYear, _cgpa, _graduateYear, dataHash);\n        \n        emit StudentAdded(_studentId, dataHash);\n    }\n\n    // Update an existing student\n    function updateStudent(uint256 _studentId, string memory _name, string memory _programme, uint256 _joinYear, uint256 _cgpa, uint256 _graduateYear) public {\n        require(students[_studentId].studentId != 0, \"Student does not exist\");\n        \n        bytes32 dataHash = sha256(abi.encodePacked(_studentId, _name, _programme, _joinYear, _cgpa, _graduateYear));\n        students[_studentId] = Student(_studentId, _name, _programme, _joinYear, _cgpa, _graduateYear, dataHash);\n        \n        emit StudentUpdated(_studentId, dataHash);\n    }\n\n    // Get student data\n    function getStudent(uint256 _studentId) public view returns (Student memory) {\n        require(_studentId != 0, \"Invalid Student ID\");\n        return students[_studentId];\n    }\n}\n",
  "sourcePath": "C:\\Users\\verik\\OneDrive\\Documents\\GitHub\\FYP -Final\\contracts\\UniversityData.sol",
  "compiler": {
    "name": "solc",
    "version": "0.8.0+commit.c7dfd78e.Emscripten.clang"
  },
  "schemaVersion": "3.4.16",
  "updatedAt": "2023-12-17T22:51:11.105Z",
  "networkType": "ethereum",
  "devdoc": {
    "kind": "dev",
    "methods": {},
    "version": 1
  },
  "userdoc": {
    "kind": "user",
    "methods": {},
    "version": 1
  }
}