{
  "contractName": "UniversityData",
  "abi": [
    {
      "anonymous": false,
      "inputs": [
        {
          "indexed": true,
          "internalType": "uint256",
          "name": "studentId",
          "type": "uint256"
        },
        {
          "indexed": false,
          "internalType": "bytes32",
          "name": "dataHash",
          "type": "bytes32"
        }
      ],
      "name": "StudentAdded",
      "type": "event"
    },
    {
      "anonymous": false,
      "inputs": [
        {
          "indexed": true,
          "internalType": "uint256",
          "name": "studentId",
          "type": "uint256"
        },
        {
          "indexed": false,
          "internalType": "bytes32",
          "name": "dataHash",
          "type": "bytes32"
        }
      ],
      "name": "StudentUpdated",
      "type": "event"
    },
    {
      "inputs": [
        {
          "internalType": "uint256",
          "name": "_studentId",
          "type": "uint256"
        },
        {
          "internalType": "string",
          "name": "_name",
          "type": "string"
        },
        {
          "internalType": "string",
          "name": "_programme",
          "type": "string"
        },
        {
          "internalType": "uint256",
          "name": "_joinYear",
          "type": "uint256"
        },
        {
          "internalType": "uint256",
          "name": "_cgpa",
          "type": "uint256"
        },
        {
          "internalType": "uint256",
          "name": "_graduateYear",
          "type": "uint256"
        }
      ],
      "name": "addStudent",
      "outputs": [],
      "stateMutability": "nonpayable",
      "type": "function"
    },
    {
      "inputs": [
        {
          "internalType": "uint256",
          "name": "_studentId",
          "type": "uint256"
        },
        {
          "internalType": "string",
          "name": "_name",
          "type": "string"
        },
        {
          "internalType": "string",
          "name": "_programme",
          "type": "string"
        },
        {
          "internalType": "uint256",
          "name": "_joinYear",
          "type": "uint256"
        },
        {
          "internalType": "uint256",
          "name": "_cgpa",
          "type": "uint256"
        },
        {
          "internalType": "uint256",
          "name": "_graduateYear",
          "type": "uint256"
        }
      ],
      "name": "updateStudent",
      "outputs": [],
      "stateMutability": "nonpayable",
      "type": "function"
    },
    {
      "inputs": [
        {
          "internalType": "uint256",
          "name": "_studentId",
          "type": "uint256"
        }
      ],
      "name": "getStudent",
      "outputs": [
        {
          "components": [
            {
              "internalType": "uint256",
              "name": "studentId",
              "type": "uint256"
            },
            {
              "internalType": "string",
              "name": "name",
              "type": "string"
            },
            {
              "internalType": "string",
              "name": "programme",
              "type": "string"
            },
            {
              "internalType": "uint256",
              "name": "joinYear",
              "type": "uint256"
            },
            {
              "internalType": "uint256",
              "name": "cgpa",
              "type": "uint256"
            },
            {
              "internalType": "uint256",
              "name": "graduateYear",
              "type": "uint256"
            },
            {
              "internalType": "bytes32",
              "name": "dataHash",
              "type": "bytes32"
            }
          ],
          "internalType": "struct UniversityData.Student",
          "name": "",
          "type": "tuple"
        }
      ],
      "stateMutability": "view",
      "type": "function",
      "constant": true
    }
  ],
  "bytecode": "0x608060405234801561001057600080fd5b50610eb4806100206000396000f3fe608060405234801561001057600080fd5b50600436106100415760003560e01c80633e9137aa14610046578063642f916314610062578063fe652ab714610092575b600080fd5b610060600480360381019061005b9190610829565b6100ae565b005b61007c60048036038101906100779190610800565b610278565b6040516100899190610c7e565b60405180910390f35b6100ac60048036038101906100a79190610829565b610497565b005b60008060008881526020019081526020016000206000015414610106576040517f08c379a00000000000000000000000000000000000000000000000000000000081526004016100fd90610c5e565b60405180910390fd5b6000600287878787878760405160200161012596959493929190610b7b565b6040516020818303038152906040526040516101419190610b64565b602060405180830381855afa15801561015e573d6000803e3d6000fd5b5050506040513d601f19601f8201168201806040525081019061018191906107d7565b90506040518060e00160405280888152602001878152602001868152602001858152602001848152602001838152602001828152506000808981526020019081526020016000206000820151816000015560208201518160010190805190602001906101ee929190610662565b50604082015181600201908051906020019061020b929190610662565b50606082015181600301556080820151816004015560a0820151816005015560c08201518160060155905050867f48d434829463b23654c8c1d09ecfe90fd193502a22cbb19498a298fd23e94e26826040516102679190610be3565b60405180910390a250505050505050565b6102806106e8565b60008214156102c4576040517f08c379a00000000000000000000000000000000000000000000000000000000081526004016102bb90610bfe565b60405180910390fd5b600080600084815260200190815260200160002060000154141561031d576040517f08c379a000000000000000000000000000000000000000000000000000000000815260040161031490610c1e565b60405180910390fd5b6000808381526020019081526020016000206040518060e00160405290816000820154815260200160018201805461035490610da5565b80601f016020809104026020016040519081016040528092919081815260200182805461038090610da5565b80156103cd5780601f106103a2576101008083540402835291602001916103cd565b820191906000526020600020905b8154815290600101906020018083116103b057829003601f168201915b505050505081526020016002820180546103e690610da5565b80601f016020809104026020016040519081016040528092919081815260200182805461041290610da5565b801561045f5780601f106104345761010080835404028352916020019161045f565b820191906000526020600020905b81548152906001019060200180831161044257829003601f168201915b505050505081526020016003820154815260200160048201548152602001600582015481526020016006820154815250509050919050565b60008060008881526020019081526020016000206000015414156104f0576040517f08c379a00000000000000000000000000000000000000000000000000000000081526004016104e790610c3e565b60405180910390fd5b6000600287878787878760405160200161050f96959493929190610b7b565b60405160208183030381529060405260405161052b9190610b64565b602060405180830381855afa158015610548573d6000803e3d6000fd5b5050506040513d601f19601f8201168201806040525081019061056b91906107d7565b90506040518060e00160405280888152602001878152602001868152602001858152602001848152602001838152602001828152506000808981526020019081526020016000206000820151816000015560208201518160010190805190602001906105d8929190610662565b5060408201518160020190805190602001906105f5929190610662565b50606082015181600301556080820151816004015560a0820151816005015560c08201518160060155905050867f4334c54ffbcf06c159692c4c5a7b7c1afc5e2917d5d8977c11be978bd36faa76826040516106519190610be3565b60405180910390a250505050505050565b82805461066e90610da5565b90600052602060002090601f01602090048101928261069057600085556106d7565b82601f106106a957805160ff19168380011785556106d7565b828001600101855582156106d7579182015b828111156106d65782518255916020019190600101906106bb565b5b5090506106e49190610728565b5090565b6040518060e00160405280600081526020016060815260200160608152602001600081526020016000815260200160008152602001600080191681525090565b5b80821115610741576000816000905550600101610729565b5090565b600061075861075384610cd1565b610ca0565b90508281526020810184848401111561077057600080fd5b61077b848285610d63565b509392505050565b60008151905061079281610e50565b92915050565b600082601f8301126107a957600080fd5b81356107b9848260208601610745565b91505092915050565b6000813590506107d181610e67565b92915050565b6000602082840312156107e957600080fd5b60006107f784828501610783565b91505092915050565b60006020828403121561081257600080fd5b6000610820848285016107c2565b91505092915050565b60008060008060008060c0878903121561084257600080fd5b600061085089828a016107c2565b965050602087013567ffffffffffffffff81111561086d57600080fd5b61087989828a01610798565b955050604087013567ffffffffffffffff81111561089657600080fd5b6108a289828a01610798565b94505060606108b389828a016107c2565b93505060806108c489828a016107c2565b92505060a06108d589828a016107c2565b9150509295509295509295565b6108eb81610d4f565b82525050565b6108fa81610d4f565b82525050565b600061090b82610d01565b6109158185610d17565b9350610925818560208601610d72565b80840191505092915050565b600061093c82610d0c565b6109468185610d22565b9350610956818560208601610d72565b61095f81610e3f565b840191505092915050565b600061097582610d0c565b61097f8185610d44565b935061098f818560208601610d72565b80840191505092915050565b60006109a8601283610d33565b91507f496e76616c69642053747564656e7420494400000000000000000000000000006000830152602082019050919050565b60006109e8601183610d33565b91507f53747564656e74206e6f7420666f756e640000000000000000000000000000006000830152602082019050919050565b6000610a28601683610d33565b91507f53747564656e7420646f6573206e6f74206578697374000000000000000000006000830152602082019050919050565b6000610a68601683610d33565b91507f53747564656e7420616c726561647920657869737473000000000000000000006000830152602082019050919050565b600060e083016000830151610ab36000860182610b3e565b5060208301518482036020860152610acb8282610931565b91505060408301518482036040860152610ae58282610931565b9150506060830151610afa6060860182610b3e565b506080830151610b0d6080860182610b3e565b5060a0830151610b2060a0860182610b3e565b5060c0830151610b3360c08601826108e2565b508091505092915050565b610b4781610d59565b82525050565b610b5e610b5982610d59565b610dd7565b82525050565b6000610b708284610900565b915081905092915050565b6000610b878289610b4d565b602082019150610b97828861096a565b9150610ba3828761096a565b9150610baf8286610b4d565b602082019150610bbf8285610b4d565b602082019150610bcf8284610b4d565b602082019150819050979650505050505050565b6000602082019050610bf860008301846108f1565b92915050565b60006020820190508181036000830152610c178161099b565b9050919050565b60006020820190508181036000830152610c37816109db565b9050919050565b60006020820190508181036000830152610c5781610a1b565b9050919050565b60006020820190508181036000830152610c7781610a5b565b9050919050565b60006020820190508181036000830152610c988184610a9b565b905092915050565b6000604051905081810181811067ffffffffffffffff82111715610cc757610cc6610e10565b5b8060405250919050565b600067ffffffffffffffff821115610cec57610ceb610e10565b5b601f19601f8301169050602081019050919050565b600081519050919050565b600081519050919050565b600081905092915050565b600082825260208201905092915050565b600082825260208201905092915050565b600081905092915050565b6000819050919050565b6000819050919050565b82818337600083830152505050565b60005b83811015610d90578082015181840152602081019050610d75565b83811115610d9f576000848401525b50505050565b60006002820490506001821680610dbd57607f821691505b60208210811415610dd157610dd0610de1565b5b50919050565b6000819050919050565b7f4e487b7100000000000000000000000000000000000000000000000000000000600052602260045260246000fd5b7f4e487b7100000000000000000000000000000000000000000000000000000000600052604160045260246000fd5b6000601f19601f8301169050919050565b610e5981610d4f565b8114610e6457600080fd5b50565b610e7081610d59565b8114610e7b57600080fd5b5056fea264697066735822122092189a35d27b8b75161ac5ffb53734cfd649165ee994ddbb4c1a1ca7d2661a8964736f6c63430008000033",
  "immutableReferences": {},
  "source": "// SPDX-License-Identifier: MIT\npragma solidity ^0.8.0;\n\ncontract UniversityData {\n    struct Student {\n        uint256 studentId;\n        string name;\n        string programme;\n        uint256 joinYear;\n        uint256 cgpa;\n        uint256 graduateYear;\n        bytes32 dataHash; // SHA-256 hash of the student data\n    }\n\n    mapping(uint256 => Student) private students;\n    event StudentAdded(uint256 indexed studentId, bytes32 dataHash);\n    event StudentUpdated(uint256 indexed studentId, bytes32 dataHash);\n\n    // Add a new student\n    function addStudent(uint256 _studentId, string memory _name, string memory _programme, uint256 _joinYear, uint256 _cgpa, uint256 _graduateYear) public {\n        require(students[_studentId].studentId == 0, \"Student already exists\");\n        \n        bytes32 dataHash = sha256(abi.encodePacked(_studentId, _name, _programme, _joinYear, _cgpa, _graduateYear));\n        students[_studentId] = Student(_studentId, _name, _programme, _joinYear, _cgpa, _graduateYear, dataHash);\n        \n        emit StudentAdded(_studentId, dataHash);\n    }\n\n    // Update an existing student\n    function updateStudent(uint256 _studentId, string memory _name, string memory _programme, uint256 _joinYear, uint256 _cgpa, uint256 _graduateYear) public {\n        require(students[_studentId].studentId != 0, \"Student does not exist\");\n        \n        bytes32 dataHash = sha256(abi.encodePacked(_studentId, _name, _programme, _joinYear, _cgpa, _graduateYear));\n        students[_studentId] = Student(_studentId, _name, _programme, _joinYear, _cgpa, _graduateYear, dataHash);\n        \n        emit StudentUpdated(_studentId, dataHash);\n    }\n\n    // Get student data\n    function getStudent(uint256 _studentId) public view returns (Student memory) {\n        require(_studentId != 0, \"Invalid Student ID\");\n        require(students[_studentId].studentId != 0, \"Student not found\");\n        return students[_studentId];\n    }\n}\n",
  "sourcePath": "C:\\Users\\verik\\OneDrive\\Documents\\GitHub\\FYP -Final\\contracts\\UniversityData.sol",
  "compiler": {
    "name": "solc",
    "version": "0.8.0+commit.c7dfd78e.Emscripten.clang"
  },
  "schemaVersion": "3.4.16",
  "updatedAt": "2023-12-18T10:56:15.898Z",
  "networkType": "ethereum",
  "devdoc": {
    "kind": "dev",
    "methods": {},
    "version": 1
  },
  "userdoc": {
    "kind": "user",
    "methods": {},
    "version": 1
  }
}