{
  "contractName": "UniversityData",
  "abi": [
    {
      "inputs": [],
      "stateMutability": "nonpayable",
      "type": "constructor"
    },
    {
      "anonymous": false,
      "inputs": [
        {
          "indexed": false,
          "internalType": "string",
          "name": "message",
          "type": "string"
        }
      ],
      "name": "ErrorLog",
      "type": "event"
    },
    {
      "anonymous": false,
      "inputs": [
        {
          "indexed": true,
          "internalType": "uint256",
          "name": "studentId",
          "type": "uint256"
        }
      ],
      "name": "StudentAdded",
      "type": "event"
    },
    {
      "anonymous": false,
      "inputs": [
        {
          "indexed": true,
          "internalType": "uint256",
          "name": "studentId",
          "type": "uint256"
        }
      ],
      "name": "StudentUpdated",
      "type": "event"
    },
    {
      "inputs": [],
      "name": "owner",
      "outputs": [
        {
          "internalType": "address",
          "name": "",
          "type": "address"
        }
      ],
      "stateMutability": "view",
      "type": "function",
      "constant": true
    },
    {
      "inputs": [
        {
          "internalType": "address",
          "name": "newOwner",
          "type": "address"
        }
      ],
      "name": "transferOwnership",
      "outputs": [],
      "stateMutability": "nonpayable",
      "type": "function"
    },
    {
      "inputs": [
        {
          "internalType": "uint256",
          "name": "_studentId",
          "type": "uint256"
        },
        {
          "internalType": "string",
          "name": "_name",
          "type": "string"
        },
        {
          "internalType": "string",
          "name": "_programme",
          "type": "string"
        },
        {
          "internalType": "uint256",
          "name": "_joinYear",
          "type": "uint256"
        },
        {
          "internalType": "uint256",
          "name": "_cgpa",
          "type": "uint256"
        },
        {
          "internalType": "uint256",
          "name": "_graduateYear",
          "type": "uint256"
        }
      ],
      "name": "addOrUpdateStudent",
      "outputs": [],
      "stateMutability": "nonpayable",
      "type": "function"
    },
    {
      "inputs": [
        {
          "internalType": "uint256",
          "name": "studentId",
          "type": "uint256"
        }
      ],
      "name": "getStudent",
      "outputs": [
        {
          "components": [
            {
              "internalType": "uint256",
              "name": "studentId",
              "type": "uint256"
            },
            {
              "internalType": "string",
              "name": "name",
              "type": "string"
            },
            {
              "internalType": "string",
              "name": "programme",
              "type": "string"
            },
            {
              "internalType": "uint256",
              "name": "joinYear",
              "type": "uint256"
            },
            {
              "internalType": "uint256",
              "name": "cgpa",
              "type": "uint256"
            },
            {
              "internalType": "uint256",
              "name": "graduateYear",
              "type": "uint256"
            }
          ],
          "internalType": "struct UniversityData.Student",
          "name": "",
          "type": "tuple"
        }
      ],
      "stateMutability": "view",
      "type": "function",
      "constant": true
    },
    {
      "inputs": [
        {
          "internalType": "uint256",
          "name": "studentId",
          "type": "uint256"
        }
      ],
      "name": "getStudentDataHash",
      "outputs": [
        {
          "internalType": "bytes32",
          "name": "",
          "type": "bytes32"
        }
      ],
      "stateMutability": "view",
      "type": "function",
      "constant": true
    }
  ],
  "bytecode": "0x608060405234801561001057600080fd5b5033600260006101000a81548173ffffffffffffffffffffffffffffffffffffffff021916908373ffffffffffffffffffffffffffffffffffffffff1602179055506113ce806100616000396000f3fe608060405234801561001057600080fd5b50600436106100575760003560e01c80630d48e8b91461005c578063481f89c814610078578063642f9163146100a85780638da5cb5b146100d8578063f2fde38b146100f6575b600080fd5b61007660048036038101906100719190610c0c565b610112565b005b610092600480360381019061008d9190610be3565b6101ea565b60405161009f9190611074565b60405180910390f35b6100c260048036038101906100bd9190610be3565b61024a565b6040516100cf919061114f565b60405180910390f35b6100e0610406565b6040516100ed9190611059565b60405180910390f35b610110600480360381019061010b9190610b91565b61042c565b005b600260009054906101000a900473ffffffffffffffffffffffffffffffffffffffff1673ffffffffffffffffffffffffffffffffffffffff163373ffffffffffffffffffffffffffffffffffffffff16146101a2576040517f08c379a0000000000000000000000000000000000000000000000000000000008152600401610199906110af565b60405180910390fd5b60008060008881526020019081526020016000206000015414156101d3576101ce868686868686610570565b6101e2565b6101e18686868686866107c0565b5b505050505050565b60008082141561022f576040517f08c379a00000000000000000000000000000000000000000000000000000000081526004016102269061108f565b60405180910390fd5b60016000838152602001908152602001600020549050919050565b610252610a11565b6000821415610296576040517f08c379a000000000000000000000000000000000000000000000000000000000815260040161028d9061108f565b60405180910390fd5b6000808381526020019081526020016000206040518060c0016040529081600082015481526020016001820180546102cd906112a8565b80601f01602080910402602001604051908101604052809291908181526020018280546102f9906112a8565b80156103465780601f1061031b57610100808354040283529160200191610346565b820191906000526020600020905b81548152906001019060200180831161032957829003601f168201915b5050505050815260200160028201805461035f906112a8565b80601f016020809104026020016040519081016040528092919081815260200182805461038b906112a8565b80156103d85780601f106103ad576101008083540402835291602001916103d8565b820191906000526020600020905b8154815290600101906020018083116103bb57829003601f168201915b5050505050815260200160038201548152602001600482015481526020016005820154815250509050919050565b600260009054906101000a900473ffffffffffffffffffffffffffffffffffffffff1681565b600260009054906101000a900473ffffffffffffffffffffffffffffffffffffffff1673ffffffffffffffffffffffffffffffffffffffff163373ffffffffffffffffffffffffffffffffffffffff16146104bc576040517f08c379a00000000000000000000000000000000000000000000000000000000081526004016104b3906110af565b60405180910390fd5b600073ffffffffffffffffffffffffffffffffffffffff168173ffffffffffffffffffffffffffffffffffffffff16141561052c576040517f08c379a00000000000000000000000000000000000000000000000000000000081526004016105239061110f565b60405180910390fd5b80600260006101000a81548173ffffffffffffffffffffffffffffffffffffffff021916908373ffffffffffffffffffffffffffffffffffffffff16021790555050565b60008614156105b4576040517f08c379a00000000000000000000000000000000000000000000000000000000081526004016105ab9061108f565b60405180910390fd5b6101908211156105f9576040517f08c379a00000000000000000000000000000000000000000000000000000000081526004016105f0906110cf565b60405180910390fd5b60008060008881526020019081526020016000206000015414610651576040517f08c379a00000000000000000000000000000000000000000000000000000000081526004016106489061112f565b60405180910390fd5b6040518060c00160405280878152602001868152602001858152602001848152602001838152602001828152506000808881526020019081526020016000206000820151816000015560208201518160010190805190602001906106b6929190610a47565b5060408201518160020190805190602001906106d3929190610a47565b50606082015181600301556080820151816004015560a082015181600501559050506000600287878787878760405160200161071496959493929190610ff1565b6040516020818303038152906040526040516107309190610fda565b602060405180830381855afa15801561074d573d6000803e3d6000fd5b5050506040513d601f19601f820116820180604052508101906107709190610bba565b9050806001600089815260200190815260200160002081905550867f7b244afbade88f14ffe00252804b1465253195836e50dede3f68c1c7996ba5b760405160405180910390a250505050505050565b6000861415610804576040517f08c379a00000000000000000000000000000000000000000000000000000000081526004016107fb9061108f565b60405180910390fd5b610190821115610849576040517f08c379a0000000000000000000000000000000000000000000000000000000008152600401610840906110cf565b60405180910390fd5b60008060008881526020019081526020016000206000015414156108a2576040517f08c379a0000000000000000000000000000000000000000000000000000000008152600401610899906110ef565b60405180910390fd5b6040518060c0016040528087815260200186815260200185815260200184815260200183815260200182815250600080888152602001908152602001600020600082015181600001556020820151816001019080519060200190610907929190610a47565b506040820151816002019080519060200190610924929190610a47565b50606082015181600301556080820151816004015560a082015181600501559050506000600287878787878760405160200161096596959493929190610ff1565b6040516020818303038152906040526040516109819190610fda565b602060405180830381855afa15801561099e573d6000803e3d6000fd5b5050506040513d601f19601f820116820180604052508101906109c19190610bba565b9050806001600089815260200190815260200160002081905550867f397195550455bf5b0b61aa963bd6087f54f7281f81967d93cc1b9215f4f1dc7a60405160405180910390a250505050505050565b6040518060c001604052806000815260200160608152602001606081526020016000815260200160008152602001600081525090565b828054610a53906112a8565b90600052602060002090601f016020900481019282610a755760008555610abc565b82601f10610a8e57805160ff1916838001178555610abc565b82800160010185558215610abc579182015b82811115610abb578251825591602001919060010190610aa0565b5b509050610ac99190610acd565b5090565b5b80821115610ae6576000816000905550600101610ace565b5090565b6000610afd610af8846111a2565b611171565b905082815260208101848484011115610b1557600080fd5b610b20848285611266565b509392505050565b600081359050610b3781611353565b92915050565b600081519050610b4c8161136a565b92915050565b600082601f830112610b6357600080fd5b8135610b73848260208601610aea565b91505092915050565b600081359050610b8b81611381565b92915050565b600060208284031215610ba357600080fd5b6000610bb184828501610b28565b91505092915050565b600060208284031215610bcc57600080fd5b6000610bda84828501610b3d565b91505092915050565b600060208284031215610bf557600080fd5b6000610c0384828501610b7c565b91505092915050565b60008060008060008060c08789031215610c2557600080fd5b6000610c3389828a01610b7c565b965050602087013567ffffffffffffffff811115610c5057600080fd5b610c5c89828a01610b52565b955050604087013567ffffffffffffffff811115610c7957600080fd5b610c8589828a01610b52565b9450506060610c9689828a01610b7c565b9350506080610ca789828a01610b7c565b92505060a0610cb889828a01610b7c565b9150509295509295509295565b610cce81611220565b82525050565b610cdd81611232565b82525050565b6000610cee826111d2565b610cf881856111e8565b9350610d08818560208601611275565b80840191505092915050565b6000610d1f826111dd565b610d2981856111f3565b9350610d39818560208601611275565b610d4281611342565b840191505092915050565b6000610d58826111dd565b610d628185611215565b9350610d72818560208601611275565b80840191505092915050565b6000610d8b601283611204565b91507f496e76616c69642053747564656e7420494400000000000000000000000000006000830152602082019050919050565b6000610dcb602183611204565b91507f4f6e6c79206f776e65722063616e2063616c6c20746869732066756e6374696f60008301527f6e000000000000000000000000000000000000000000000000000000000000006020830152604082019050919050565b6000610e31600c83611204565b91507f496e76616c6964204347504100000000000000000000000000000000000000006000830152602082019050919050565b6000610e71601683611204565b91507f53747564656e7420646f6573206e6f74206578697374000000000000000000006000830152602082019050919050565b6000610eb1601d83611204565b91507f4e6577206f776e657220697320746865207a65726f20616464726573730000006000830152602082019050919050565b6000610ef1601683611204565b91507f53747564656e7420616c726561647920657869737473000000000000000000006000830152602082019050919050565b600060c083016000830151610f3c6000860182610fb4565b5060208301518482036020860152610f548282610d14565b91505060408301518482036040860152610f6e8282610d14565b9150506060830151610f836060860182610fb4565b506080830151610f966080860182610fb4565b5060a0830151610fa960a0860182610fb4565b508091505092915050565b610fbd8161125c565b82525050565b610fd4610fcf8261125c565b6112da565b82525050565b6000610fe68284610ce3565b915081905092915050565b6000610ffd8289610fc3565b60208201915061100d8288610d4d565b91506110198287610d4d565b91506110258286610fc3565b6020820191506110358285610fc3565b6020820191506110458284610fc3565b602082019150819050979650505050505050565b600060208201905061106e6000830184610cc5565b92915050565b60006020820190506110896000830184610cd4565b92915050565b600060208201905081810360008301526110a881610d7e565b9050919050565b600060208201905081810360008301526110c881610dbe565b9050919050565b600060208201905081810360008301526110e881610e24565b9050919050565b6000602082019050818103600083015261110881610e64565b9050919050565b6000602082019050818103600083015261112881610ea4565b9050919050565b6000602082019050818103600083015261114881610ee4565b9050919050565b600060208201905081810360008301526111698184610f24565b905092915050565b6000604051905081810181811067ffffffffffffffff8211171561119857611197611313565b5b8060405250919050565b600067ffffffffffffffff8211156111bd576111bc611313565b5b601f19601f8301169050602081019050919050565b600081519050919050565b600081519050919050565b600081905092915050565b600082825260208201905092915050565b600082825260208201905092915050565b600081905092915050565b600061122b8261123c565b9050919050565b6000819050919050565b600073ffffffffffffffffffffffffffffffffffffffff82169050919050565b6000819050919050565b82818337600083830152505050565b60005b83811015611293578082015181840152602081019050611278565b838111156112a2576000848401525b50505050565b600060028204905060018216806112c057607f821691505b602082108114156112d4576112d36112e4565b5b50919050565b6000819050919050565b7f4e487b7100000000000000000000000000000000000000000000000000000000600052602260045260246000fd5b7f4e487b7100000000000000000000000000000000000000000000000000000000600052604160045260246000fd5b6000601f19601f8301169050919050565b61135c81611220565b811461136757600080fd5b50565b61137381611232565b811461137e57600080fd5b50565b61138a8161125c565b811461139557600080fd5b5056fea26469706673582212202443a6738c7617072fccf1f150d6df820ba84fee618e5528bbf7ccda214518b464736f6c63430008000033",
  "immutableReferences": {},
  "source": "// SPDX-License-Identifier: MIT\npragma solidity ^0.8.0;\n\ncontract UniversityData {\n    struct Student {\n        uint256 studentId;\n        string name;\n        string programme;\n        uint256 joinYear;\n        uint256 cgpa;\n        uint256 graduateYear;\n    }\n\n    mapping(uint256 => Student) private students;\n    mapping(uint256 => bytes32) private studentDataHashes;\n    address public owner;\n\n    event StudentAdded(uint256 indexed studentId);\n    event StudentUpdated(uint256 indexed studentId);\n    event ErrorLog(string message);\n\n    constructor() {\n        owner = msg.sender;\n    }\n\n    modifier onlyOwner() {\n        require(msg.sender == owner, \"Only owner can call this function\");\n        _;\n    }\n\n    function transferOwnership(address newOwner) public onlyOwner {\n        require(newOwner != address(0), \"New owner is the zero address\");\n        owner = newOwner;\n    }\n\n    function addOrUpdateStudent(uint256 _studentId, string memory _name, string memory _programme, uint256 _joinYear, uint256 _cgpa, uint256 _graduateYear) public onlyOwner {\n        if (students[_studentId].studentId == 0) {\n            addStudent(_studentId, _name, _programme, _joinYear, _cgpa, _graduateYear);\n        } else {\n            updateStudent(_studentId, _name, _programme, _joinYear, _cgpa, _graduateYear);\n        }\n    }\n\n    function addStudent(uint256 _studentId, string memory _name, string memory _programme, uint256 _joinYear, uint256 _cgpa, uint256 _graduateYear) internal {\n        require(_studentId != 0, \"Invalid Student ID\");\n        require(_cgpa <= 400, \"Invalid CGPA\");\n        require(students[_studentId].studentId == 0, \"Student already exists\");\n\n        students[_studentId] = Student(_studentId, _name, _programme, _joinYear, _cgpa, _graduateYear);\n        bytes32 dataHash = sha256(abi.encodePacked(_studentId, _name, _programme, _joinYear, _cgpa, _graduateYear));\n        studentDataHashes[_studentId] = dataHash;\n\n        emit StudentAdded(_studentId);\n    }\n\n    function updateStudent(uint256 _studentId, string memory _name, string memory _programme, uint256 _joinYear, uint256 _cgpa, uint256 _graduateYear) internal {\n        require(_studentId != 0, \"Invalid Student ID\");\n        require(_cgpa <= 400, \"Invalid CGPA\");\n        require(students[_studentId].studentId != 0, \"Student does not exist\");\n\n        students[_studentId] = Student(_studentId, _name, _programme, _joinYear, _cgpa, _graduateYear);\n        bytes32 dataHash = sha256(abi.encodePacked(_studentId, _name, _programme, _joinYear, _cgpa, _graduateYear));\n        studentDataHashes[_studentId] = dataHash;\n\n        emit StudentUpdated(_studentId);\n    }\n\n    function getStudent(uint256 studentId) public view returns (Student memory) {\n        require(studentId != 0, \"Invalid Student ID\");\n        return students[studentId];\n    }\n\n    function getStudentDataHash(uint256 studentId) public view returns (bytes32) {\n        require(studentId != 0, \"Invalid Student ID\");\n        return studentDataHashes[studentId];\n    }\n\n    // Additional functions and logic as needed...\n}\n",
  "sourcePath": "C:\\Users\\verik\\OneDrive\\Documents\\GitHub\\FYP\\contracts\\UniversityData.sol",
  "compiler": {
    "name": "solc",
    "version": "0.8.0+commit.c7dfd78e.Emscripten.clang"
  },
  "schemaVersion": "3.4.16",
  "updatedAt": "2023-12-17T09:11:42.072Z",
  "networkType": "ethereum",
  "devdoc": {
    "kind": "dev",
    "methods": {},
    "version": 1
  },
  "userdoc": {
    "kind": "user",
    "methods": {},
    "version": 1
  }
}